:100000000C9434000C943E000C943E000C943E0082
:100010000C943E000C943E000C943E000C943E0068
:100020000C943E000C943E000C943E000C943E0058
:100030000C943E000C943E000C943E000C943E0048
:100040000C943E000C943E000C943E000C943E0038
:100050000C943E000C943E000C943E000C943E0028
:100060000C943E000C943E0011241FBECFEFD8E04C
:10007000DEBFCDBF0E9452000C94AE000C94000075
:10008000CF93DF930F92CDB7DEB78983898185B98E
:100090008FE39FE10197F1F700C000000F90DF911F
:1000A000CF9108958FEF84B99EE028E13DEB46E7BC
:1000B0008CE395B9EFE3FFE13197F1F700C0000061
:1000C00025B9EFE3FFE13197F1F700C0000035B942
:1000D000EFE3FFE13197F1F700C0000045B9EFE32E
:1000E000FFE13197F1F700C0000085B9EFE3FFE1D0
:1000F0003197F1F700C0000085B9EFE3FFE13197D8
:10010000F1F700C0000085B9EFE3FFE13197F1F7A7
:1001100000C0000045B9EFE3FFE13197F1F700C0FF
:10012000000035B9EFE3FFE13197F1F700C00000BF
:1001300025B9EFE3FFE13197F1F700C0000095B971
:10014000EFE3FFE13197F1F700C0000015B8EFE3EE
:10015000FCE93197F1F700C00000ABCFF894FFCF76
:00000001FF
